:100000000C94BD000C94E5000C94E5000C94E50004
:100010000C94E5000C94E5000C94E5000C94E500CC
:100020000C94E5000C94E5000C94E5000C94E500BC
:100030000C94E5000C94E5000C94E5000C94E500AC
:100040000C943F030C94E5000C940D030C94E70210
:100050000C94E5000C94E5000C94E5000C94E5008C
:100060000C94E5000C94E500B804BB04BD04C00486
:10007000C304C604CA04CE04D104D404DA04DA04E6
:10008000DA04DA04DA04DA04DA04DA048D04DA04CD
:10009000DA04DA048A048A048D048A048D04DA04FA
:1000A0008A04DA04DA04DA04DA04DA048A04930447
:1000B000DA04A004DA049904AA04DA04DA04DA04FB
:1000C000DA04DA04DA04DA04DA04DA04DA04DA0440
:1000D000DA04DA04DA04DA04DA04DA04DA04DA0430
:1000E000DA04DA04DA04DA04DA04D704DA04DA0423
:1000F000DA04A404DA049D04A7047305F305F305E8
:10010000F3056B058D05B4059C05C305F3057B055B
:10011000F305F305F305F305F3058405DB0500009E
:1001200000080002010000030407000000000000B6
:10013000000000000000230026002900000000004D
:10014000250028002B0000000000240027002A00C2
:10015000040404040404040402020202020203036D
:100160000303030301020408102040800102040875
:100170001020010204081020580611241FBECFEFE2
:10018000D8E0DEBFCDBF11E0A0E0B1E0E0E5F0E1F6
:1001900002C005900D92AE31B107D9F721E0AEE172
:1001A000B1E001C01D92A63DB207E1F710E0CDEB32
:1001B000D0E004C02197FE010E941B08CC3BD10770
:1001C000C9F70E94CE030C9426080C94000090E01E
:1001D000FC01EC59FE4F2491FC01E05BFE4F849141
:1001E000882399F090E0880F991FFC01EA5BFE4F8D
:1001F000A591B491FC01E45CFE4F859194918FB779
:10020000F894EC91E22BEC938FBF0895CF92DF929C
:10021000EF92FF920F931F93CF93DF936C017A01BC
:100220008B01C0E0D0E0CE15DF0589F0D8016D91DB
:100230008D01D601ED91FC910190F081E02DC60178
:100240000995892B11F47E0102C02196ECCFC701DC
:10025000DF91CF911F910F91FF90EF90DF90CF90A2
:100260000895089580E090E00895FC01538D448D39
:10027000252F30E0842F90E0821B930B541710F051
:10028000CF96089501970895FC01918D828D98175E
:1002900061F0828DDF01A80FB11D5D968C91928D6A
:1002A0009F5F9F73928F90E008958FEF9FEF089567
:1002B000FC01918D828D981731F0828DE80FF11D30
:1002C000858D90E008958FEF9FEF0895FC01918D4B
:1002D000228D892F90E0805C9F4F821B91098F7344
:1002E0009927089589E391E00E94660121E0892B16
:1002F00009F420E0822F0895FC01848DDF01A80F0E
:10030000B11DA35ABF4F2C91848D90E001968F733D
:100310009927848FA689B7892C93A089B1898C915C
:1003200080648C93938D848D981306C00288F38922
:10033000E02D80818F7D80830895EF92FF920F934F
:100340001F93CF93DF93EC0181E0888F9B8D8C8D81
:10035000981305C0E889F989808185FD24C0F62EAF
:100360000B8D10E00F5F1F4F0F731127E02E8C8D48
:10037000E8120CC00FB607FCFACFE889F989808132
:1003800085FFF5CFCE010E947C01F1CF8B8DFE0160
:10039000E80FF11DE35AFF4FF0820B8FEA89FB89CA
:1003A0008081806207C0EE89FF896083E889F989CE
:1003B00080818064808381E090E0DF91CF911F9104
:1003C0000F91FF90EF900895CF93DF93EC01888D0C
:1003D0008823C9F0EA89FB89808185FD05C0A88949
:1003E000B9898C9186FD0FC00FB607FCF5CF8081CF
:1003F00085FFF2CFA889B9898C9185FFEDCFCE0119
:100400000E947C01E7CFDF91CF91089580E090E0DA
:10041000892B29F00E94720181110C94000008952B
:1004200090E0FC01E25EFE4F3491FC01EC59FE4F7E
:100430002491FC01E05BFE4FE491EE2309F43BC004
:10044000332339F1333091F038F43130A9F03230C0
:1004500001F584B58F7D12C0373091F03830A1F0AE
:100460003430B9F4809180008F7D03C0809180008A
:100470008F77809380000DC084B58F7784BD09C0CD
:100480008091B0008F7703C08091B0008F7D809302
:10049000B000F0E0EE0FFF1FE45CFE4FA591B491B9
:1004A0008FB7F894EC91611103C020952E2301C001
:1004B0002E2B2C938FBF08952FB7F89460912301B2
:1004C0007091240180912501909126012FBF0895FC
:1004D000FF920F931F93CF93DF93EC01F42E6636B8
:1004E00011F461E009C0623631F460E089810E9454
:1004F000100261E005C060E089810E94100260E0A6
:100500008A810E9410020F2D10E0C8818C2F0E945A
:10051000E7000115110509F447C00F3F110509F463
:1005200045C0EC2FF0E0E25EFE4FE491E330F9F0DD
:1005300048F4E130B9F0E230A1F584B5806284BDC1
:10054000F8BC3DC0E730E9F0E83019F1E43049F596
:100550008091800080628093800010938B000093D4
:100560008A002DC084B5806884BDF7BC28C0809106
:100570008000806880938000109389000093880039
:100580001EC08091B00080688093B000F092B300EC
:1005900016C08091B00080628093B000F092B400E9
:1005A0000EC00038110514F460E001C061E08C2F2A
:1005B000DF91CF911F910F91FF900C941002DF916A
:1005C000CF911F910F91FF9008950E9421081F92D3
:1005D0000F920FB60F9211242F933F934F935F9377
:1005E0006F937F938F939F93AF93BF93EF93FF93FB
:1005F00089E391E00E947C01FF91EF91BF91AF915F
:100600009F918F917F916F915F914F913F912F912A
:100610000F900FBE0F901F9018951F920F920FB65C
:100620000F9211242F938F939F93EF93FF93E09159
:100630004901F0914A018081E0914F01F091500110
:1006400082FD12C09081809152018F5F8F73209143
:100650005301821751F0E0915201F0E0E75CFE4F48
:10066000958F8093520101C08081FF91EF919F91FE
:100670008F912F910F900FBE0F901F9018951F9282
:100680000F920FB60F9211242F933F938F939F9346
:10069000AF93BF938091230190912401A0912501F4
:1006A000B09126013091220123E0230F2D3720F451
:1006B0000196A11DB11D05C026E8230F0296A11DBC
:1006C000B11D209322018093230190932401A093D4
:1006D0002501B093260180911E0190911F01A091E8
:1006E0002001B09121010196A11DB11D80931E0131
:1006F00090931F01A0932001B0932101BF91AF916E
:100700009F918F913F912F910F900FBE0F901F904F
:100710001895CF92DF92EF92FF920F931F93E82FDD
:10072000F92F05C0015011092109310961F19081AA
:1007300096239417B9F305C0015011092109310915
:1007400011F1908196239413F7CFC12CD12CE12C79
:10075000F12C0AC08FEFC81AD80AE80AF80A0C155B
:100760001D052E053F0579F080818623841791F3BE
:100770006C2D7D2D8E2D9F2D1F910F91FF90EF9051
:10078000DF90CF90089560E070E080E090E01F91EE
:100790000F91FF90EF90DF90CF900895789484B5FB
:1007A000826084BD84B5816084BD85B5826085BD6D
:1007B00085B5816085BD80916E00816080936E00FB
:1007C00010928100809181008260809381008091ED
:1007D000810081608093810080918000816080939E
:1007E00080008091B10084608093B1008091B0005E
:1007F00081608093B00080917A00846080937A0059
:1008000080917A00826080937A0080917A00816082
:1008100080937A0080917A00806880937A001092A9
:10082000C100E0914901F0914A0182E08083E091AA
:100830004901F0914A011082E0914501F091460191
:100840001082E0914701F091480180E1808310928D
:100850005101E0914D01F0914E0186E08083E091DD
:100860004B01F0914C01808180618083E0914B01CC
:10087000F0914C01808188608083E0914B01F09180
:100880004C01808180688083E0914B01F0914C01A4
:1008900080818F7D8083C2E08C2F0E94E700CF5F34
:1008A000CE30D1F780E10E94E70081E10E94E700AD
:1008B00082E10E94E70083E10E94E7008EE00E944F
:1008C000E70060E08EE00E94100284E18093300136
:1008D00080932F019AEF692EC1EED8EC2DE7922E6E
:1008E00034E6832E42E3742E53E2A52EB12C89E325
:1008F00091E00E944401C82E880FDD08EE08FF0831
:10090000F601F097E934F10508F054C0EC5CFF4FB4
:100910000C941B0810922D0109C010922D0181E04A
:1009200080932C0147C081E080932D0110922C010F
:1009300041C081E080932E013DC010922E013AC04B
:1009400081E080932D0136C010922D0133C01092AA
:100950002B0130C081E080932B010E945C026093E8
:100960002701709328018093290190932A0122C0C6
:1009700010922F011FC089E10AC070922F011AC086
:1009800080922F0117C090922F0114C086E98093A6
:100990002F0110C0EFEAE0932F010CC0D0932F017C
:1009A00009C0C0932F0106C060922F0103C0FFEF62
:1009B000F0932F0160E08EE00E94100261E08EE073
:1009C0000E941002C5010197F1F760E08EE00E94DD
:1009D0001002E3E7F1E06491EFE5F1E08491E82FA4
:1009E000F0E0EE0FFF1FEE5CFE4F8591949108EE54
:1009F00013E020E030E0462F0E9489036115710565
:100A00008105910549F0DC01CB010196A11DB11DC5
:100A1000BC01CD019F7003C060E070E0CB010E947B
:100A2000FC0620E030E84BEA53E40E94AE0720E0E9
:100A300030E44CE156E40E948A0620E030E040E0D9
:100A40005FE30E94AE071B012C0160933501709398
:100A50003601809337019093380120E030E0A901FE
:100A60000E948506882341F02092310130923201A4
:100A70004092330150923401209031013090320184
:100A8000409033015090340120E030E040EA50E4DF
:100A9000C201B1010E94850687FF0CC020E030E052
:100AA000A901C201B1010E948506882319F01092A4
:100AB000300104C080912F018093300150903001AB
:100AC000F601E254F109E231F10508F08CC0E35877
:100AD000FF4F0C941B08452D66E689E091E00E94CB
:100AE0006802452D33C0452D62E689E091E00E9401
:100AF0006802452D52C0452D66E689E091E00E94CE
:100B00006802452D66E64AC0452D62E689E091E01F
:100B10000E946802452D62E61AC0452D66E689E00E
:100B200091E00E946802452D66E686E091E00E9411
:100B30006802569456940FC0F52CF694F6944F2DF7
:100B400066E689E091E00E9468024F2D66E686E045
:100B500091E00E946802452D66E683E091E00E94E4
:100B60006802452D66E63BC0452D62E689E091E0CE
:100B70000E946802452D62E686E091E00E946802CC
:100B8000569456940FC0F52CF694F6944F2D62E6C9
:100B900089E091E00E9468024F2D62E686E091E0D4
:100BA0000E946802452D62E683E091E00E9468029F
:100BB000452D62E614C0452D63E589E091E00E9471
:100BC0006802452D63E586E091E00E946802452DAC
:100BD00063E583E091E00E946802452D63E580E0D3
:100BE00091E00E94680280912E01882311F061E05B
:100BF00001C060E080E10E94100280912D018823F5
:100C000011F061E001C060E081E10E94100280917A
:100C10002C01882311F061E001C060E082E10E94B4
:100C2000100280912B018823F1F10E945C02C09098
:100C30002701D0902801E0902901F0902A01DC01E1
:100C4000CB018C199D09AE09BF0988379105A10513
:100C5000B10510F461E028C00E945C02DC01CB0108
:100C60008C199D09AE09BF0988379105A105B10509
:100C700068F00E945C02DC01CB018C199D09AE0971
:100C8000BF09813F9105A105B10568F00E945C0292
:100C900060932701709328018093290190932A0182
:100CA0000E94060224CE60E083E10E941002F8CF89
:100CB000E9E3F1E01382128288EE93E0A0E0B0E075
:100CC00084839583A683B78380E191E091838083B9
:100CD00085EC90E09587848784EC90E09787868701
:100CE00080EC90E0918B808B81EC90E0938B828BF9
:100CF00082EC90E0958B848B86EC90E0978B868BD2
:100D0000118E128E138E148E08950E94390708F4E6
:100D100081E008950E949E060C9474070E946D075E
:100D200058F00E94660740F029F45F3F29F00C94C8
:100D30005D0751110C94A8070C9463070E94850766
:100D400068F39923B1F3552391F3951B550BBB27FA
:100D5000AA2762177307840738F09F5F5F4F220F3F
:100D6000331F441FAA1FA9F335D00E2E3AF0E0E836
:100D700032D091505040E695001CCAF72BD0FE2F80
:100D800029D0660F771F881FBB1F26173707480714
:100D9000AB07B0E809F0BB0B802DBF01FF279358CC
:100DA0005F4F3AF09E3F510578F00C945D070C942C
:100DB000A8075F3FE4F3983ED4F38695779567954F
:100DC000B795F7959F5FC9F7880F911D9695879501
:100DD00097F90895E1E0660F771F881FBB1F621720
:100DE00073078407BA0720F0621B730B840BBA0BDE
:100DF000EE1F88F7E0950895E89409C097FB3EF44C
:100E000090958095709561957F4F8F4F9F4F992357
:100E1000A9F0F92F96E9BB279395F69587957795D5
:100E20006795B795F111F8CFFAF4BB0F11F460FF95
:100E30001BC06F5F7F4F8F4F9F4F16C0882311F0ED
:100E400096E911C0772321F09EE8872F762F05C001
:100E5000662371F096E8862F70E060E02AF09A959C
:100E6000660F771F881FDAF7880F9695879597F991
:100E70000895990F0008550FAA0BE0E8FEEF16162B
:100E80001706E807F907C0F012161306E407F5077E
:100E900098F0621B730B840B950B39F40A2661F0F2
:100EA000232B242B252B21F408950A2609F4A14095
:100EB000A6958FEF811D811D089597F99F6780E8A2
:100EC00070E060E008959FEF80EC089500240A949C
:100ED0001616170618060906089500240A94121615
:100EE0001306140605060895092E0394000C11F448
:100EF000882352F0BB0F40F4BF2B11F460FF04C0F5
:100F00006F5F7F4F8F4F9F4F089557FD9058440F4D
:100F1000551F59F05F3F71F04795880F97FB991F58
:100F200061F09F3F79F08795089512161306140615
:100F3000551FF2CF4695F1DF08C0161617061806A2
:100F4000991FF1CF86957105610508940895E8947D
:100F5000BB2766277727CB0197F908950E94C10721
:100F60000C9474070E94660738F00E946D0720F009
:100F7000952311F00C945D070C94630711240C94D5
:100F8000A8070E94850770F3959FC1F3950F50E065
:100F9000551F629FF001729FBB27F00DB11D639F2B
:100FA000AA27F00DB11DAA1F649F6627B00DA11DD1
:100FB000661F829F2227B00DA11D621F739FB00D77
:100FC000A11D621F839FA00D611D221F749F3327E7
:100FD000A00D611D231F849F600D211D822F762F80
:100FE0006A2F11249F5750409AF0F1F088234AF05D
:100FF000EE0FFF1FBB1F661F771F881F91505040C9
:10100000A9F79E3F510580F00C945D070C94A8074A
:101010005F3FE4F3983ED4F3869577956795B7954F
:10102000F795E7959F5FC1F7FE2B880F911D969569
:10103000879597F90895EE0FFF1F0590F491E02D25
:10104000099481E090E0F8940C942608F894FFCF7E
:101050000B0D0C090A080507060302040000000036
:0E1060009D0106013501E401660144015801BD
:107E0000112484B714BE81FFF0D085E080938100F7
:107E100082E08093C00088E18093C10086E0809377
:107E2000C20080E18093C4008EE0C9D0259A86E02C
:107E300020E33CEF91E0309385002093840096BBD3
:107E4000B09BFECF1D9AA8958150A9F7CC24DD24C4
:107E500088248394B5E0AB2EA1E19A2EF3E0BF2EE7
:107E6000A2D0813461F49FD0082FAFD0023811F036
:107E7000013811F484E001C083E08DD089C08234E0
:107E800011F484E103C0853419F485E0A6D080C0E4
:107E9000853579F488D0E82EFF2485D0082F10E0AE
:107EA000102F00270E291F29000F111F8ED06801E7
:107EB0006FC0863521F484E090D080E0DECF843638
:107EC00009F040C070D06FD0082F6DD080E0C81688
:107ED00080E7D80618F4F601B7BEE895C0E0D1E017
:107EE00062D089930C17E1F7F0E0CF16F0E7DF06D8
:107EF00018F0F601B7BEE89568D007B600FCFDCFD4
:107F0000A601A0E0B1E02C9130E011968C91119780
:107F100090E0982F8827822B932B1296FA010C0160
:107F200087BEE89511244E5F5F4FF1E0A038BF0790
:107F300051F7F601A7BEE89507B600FCFDCF97BE46
:107F4000E89526C08437B1F42ED02DD0F82E2BD052
:107F50003CD0F601EF2C8F010F5F1F4F84911BD097
:107F6000EA94F801C1F70894C11CD11CFA94CF0C13
:107F7000D11C0EC0853739F428D08EE10CD085E9AC
:107F80000AD08FE07ACF813511F488E018D01DD067
:107F900080E101D065CF982F8091C00085FFFCCF94
:107FA0009093C60008958091C00087FFFCCF809118
:107FB000C00084FD01C0A8958091C6000895E0E648
:107FC000F0E098E1908380830895EDDF803219F02E
:107FD00088E0F5DFFFCF84E1DECF1F93182FE3DFCA
:107FE0001150E9F7F2DF1F91089580E0E8DFEE27F6
:047FF000FF270994CA
:027FFE00040479
:0400000300007E007B
:00000001FF
